:100000000C9428010C9459010C9459010C94590139
:100010000C9459010C9459010C9459010C945901F8
:100020000C9459010C9459010C9459010C945901E8
:100030000C9459010C9459010C9459010C945901D8
:100040000C9459010C9459010C9459010C945901C8
:100050000C9459010C9459010C9459010C94970378
:100060000C9459010C940B040C94E1030C94590169
:100070000C9459010C9459010C9459010C94590198
:100080000C9459010C9459010C9459010C94590188
:100090000C9459010C9459010C9459010C94590178
:1000A0000C9459010C9459010C9459010C94590168
:1000B0000C9459010C9459010C9459010C94590158
:1000C0000C9459010C9459010C9459010C94590148
:1000D0000C9459010C9459010C9459010C94590138
:1000E0000C9459010C94D7010C94FD010C9403025B
:1000F0000C9407020C94B1010C94DD010C94EB01FB
:100100000C946B020C94EF010C945D020C94F002C1
:100110000C94F9010C94E7010C94CC010C94A3020B
:100120000C94E1010C943A020C94B6010C94F50184
:100130000C9441040C9449020C94D0010C94C80115
:100140000C940D020C94D40100000A0B02090C0D52
:100150000E0807030401000000000000000000007A
:10016000000000000000000000000000000000008F
:10017000000000001211100000000000000000004C
:10018000000000000000000000000000000000006F
:100190002200250028002B002E003100340002012F
:1001A0000000050108010B010000210024002700C8
:1001B0002A002D0030003300010100000401070176
:1001C0000A010505050507050808080802020202DC
:1001D0000A0A0808040404040101010101010101E3
:1001E0000303030303030303040707070C0C0C0CAE
:1001F0000C0C0C0C02020202060606060606060697
:100200000B0B0B0B0B0B0B0B010210202008081023
:100210002040102040800201020108040201010276
:10022000040810204080804020100804020180044F
:1002300002018040201008040201080402010102AA
:10024000040810204080010204081020408041046E
:1002500011241FBECFEFD1E2DEBFCDBF00E00CBF47
:1002600024E0A8E4B2E001C01D92AC30B207E1F78F
:1002700012E0A0E0B2E0E6E5F6E200E00BBF02C06B
:1002800007900D92A834B107D9F711E0C8E2D1E088
:1002900000E006C021970109802FFE010E942A106C
:1002A000C732D10780E00807A9F70E94A5040C9483
:1002B00029130C940000109201041092080410926B
:1002C000060490910704911101C0982F90930704A0
:1002D0000895E7E0F3E02491E1ECF2E084918823D3
:1002E00099F090E0880F991FFC01E855FE4FA59109
:1002F000B491FC01E257FE4F859194918FB7F89429
:10030000EC91E22BEC938FBF0895382FE7E4F2E0F5
:100310008491E7E0F3E02491E1ECF2E094919923F9
:1003200009F435C0882311F181508231F8F4E82FA7
:10033000F0E08827E156FE4F8F4F0C942A10D00131
:10034000D401B101C801CC01B601D701DD01E10141
:10035000E701EB01EF01F501F901B601FD0103022F
:100360000702809180008F7780938000E92FF0E072
:10037000EE0FFF1FE257FE4FA591B4918FB7F8948F
:10038000EC91311148C020952E232C938FBF0895F6
:10039000809180008F7DE8CF80918000877FE4CFBF
:1003A00084B58F7784BDE2CF84B58F7DFBCF8091FC
:1003B000B0008F778093B000D9CF8091B0008F7D4F
:1003C000F9CF809190008F7780939000CFCF80916C
:1003D00090008F7DF9CF80919000877FF5CF80913D
:1003E000A0008F778093A000C1CF8091A0008F7D67
:1003F000F9CF8091A000877FF5CF809120018F7782
:1004000080932001B3CF809120018F7DF9CF80911F
:100410002001877FF5CF2E2BB8CFAF92BF92CF921E
:10042000DF92EF92FF920F931F93CF93DF936C01B4
:100430007B018B01040F151FEB015E01AE18BF0895
:10044000C017D10759F06991D601ED91FC91019047
:10045000F081E02DC6011995892B79F7C501DF914F
:10046000CF911F910F91FF90EF90DF90CF90BF90B1
:10047000AF900895FC01538D448D252F30E0842FDB
:1004800090E0821B930B541710F0CF9608950197BC
:100490000895FC01918D828D981761F0A28DAE0FA9
:1004A000BF2FB11D5D968C91928D9F5F9F73928F30
:1004B00090E008958FEF9FEF0895FC01918D828D5C
:1004C000981731F0828DE80FF11D858D90E0089529
:1004D0008FEF9FEF0895FC01918D228D892F90E081
:1004E000805C9F4F821B91098F739927089588E341
:1004F00093E00E946B0221E0892B09F420E0822F17
:100500000895FC01A48DA80FB92FB11DA35ABF4FA8
:100510002C91848D90E001968F739927848FA68902
:10052000B7892C93A089B1898C91837080648C9356
:10053000938D848D981306C00288F389E02D808105
:100540008F7D80830895EF92FF920F931F93CF9337
:10055000DF93EC0181E0888F9B8D8C8D98131AC0FE
:10056000E889F989808185FF15C09FB7F894EE89E5
:10057000FF896083E889F989808183708064808342
:100580009FBF81E090E0DF91CF911F910F91FF908D
:10059000EF900895F62E0B8D10E00F5F1F4F0F7335
:1005A0001127E02E8C8D8E110CC00FB607FCFACFF0
:1005B000E889F989808185FFF5CFCE010E9481020B
:1005C000F1CFEB8DEC0FFD2FF11DE35AFF4FF082C1
:1005D0009FB7F8940B8FEA89FB8980818062CFCF27
:1005E000CF93DF93EC01888D8823B9F0AA89BB896A
:1005F000E889F9898C9185FD03C0808186FD0DC055
:100600000FB607FCF7CF8C9185FFF2CF808185FF75
:10061000EDCFCE010E948102E9CFDF91CF91089505
:1006200080E090E0892B29F00E94770281110E94DE
:10063000000080E090E0892B49F080E090E0892B79
:1006400029F00E94000081110E94000080E090E0EB
:10065000892B49F080E090E0892B29F00E9400006E
:1006600081110E94000080E090E0892B49F080E039
:1006700090E0892B29F00E94000081110C94000069
:100680000895FC018FEF9FEF2191222391F0AC019F
:10069000522728E030E0CA01880F991F57FF04C095
:1006A00041E2842740E1942721503109AC0199F7B8
:1006B000EBCF08950F931F93CF93DF931F921F9259
:1006C000CDB7DEB7009789F1FC012081222369F1C3
:1006D0008B0110920B0410920A041A8219824AE0CC
:1006E00050E0BE016F5F7F4F0E94680BE981FA8185
:1006F000208121111AC020910A0430910B0422326A
:10070000310599F0611571058105F0E89F0769F0E1
:10071000F801608371838283938381E00F900F904F
:10072000DF91CF911F910F91089580E0F7CF1F9235
:100730000F920FB60F9211242F933F938F939F9395
:10074000AF93BF938091340390913503A09136030A
:10075000B09137033091330323E0230F2D3758F541
:100760000196A11DB11D2093330380933403909310
:100770003503A0933603B093370380912F039091F4
:100780003003A0913103B09132030196A11DB11D38
:1007900080932F0390933003A0933103B0933203DF
:1007A000BF91AF919F918F913F912F910F900FBE6D
:1007B0000F901F90189526E8230F0296A11DB11DDA
:1007C000D2CF1F920F920FB60F9211240BB60F9239
:1007D0002F933F934F935F936F937F938F939F9349
:1007E000AF93BF93EF93FF9388E393E00E9481025E
:1007F000FF91EF91BF91AF919F918F917F916F91F9
:100800005F914F913F912F910F900BBE0F900FBEB4
:100810000F901F9018951F920F920FB60F921124F0
:100820000BB60F922F938F939F93EF93FF93E091CB
:100830004803F09149038081E0914E03F0914F030A
:1008400082FD1DC09081809151038F5F8F73209135
:100850005203821741F0E0915103F0E0E85CFC4F55
:10086000958F80935103FF91EF919F918F912F91DD
:100870000F900BBE0F900FBE0F901F9018958081A8
:10088000F2CFE8E3F3E01382128288EE93E0A0E077
:10089000B0E084839583A683B78384E092E091835C
:1008A000808385EC90E09587848784EC90E097873F
:1008B000868780EC90E0918B808B81EC90E0938B2D
:1008C000828B82EC90E0958B848B86EC90E0978B0A
:1008D000868B118E128E138E148EE5EDF3E010824E
:1008E0001182128213821482158216821782108658
:1008F0001186128613861486158616861786108A28
:10090000118A128A138A148A158A168A178A108EF7
:10091000118E128E138E148E158E168E178E10A2B7
:1009200011A212A213A214A215A216A217A210A617
:1009300011A612A613A614A615A616A617A610AAE7
:1009400011AA12AA13AA14AA0895CF93DF93CDB7C0
:10095000DEB7C458D1090FB6F894DEBF0FBECDBFC5
:10096000789484B5826084BD84B5816084BD85B58A
:10097000826085BD85B5816085BD80916E00816096
:1009800080936E001092810080918100826080933C
:10099000810080918100816080938100809180003E
:1009A0008160809380008091B10084608093B10069
:1009B0008091B00081608093B0008091910082604E
:1009C000809391008091910081608093910080914B
:1009D00090008160809390008091A100826080935C
:1009E000A1008091A10081608093A1008091A0006E
:1009F00081608093A0008091210182608093210119
:100A0000809121018160809321018091200181608A
:100A10008093200180917A00846080937A00809195
:100A20007A00826080937A0080917A00816080935E
:100A30007A0080917A00806880937A001092C100D9
:100A400080910904882379F081E00E9485010E9449
:100A5000690180E00E9485010E94690181E00E9495
:100A600085010E946901E0914803F091490382E009
:100A70008083E0914403F09145031082E0914603A6
:100A8000F091470380E1808310925003E0914C0382
:100A9000F0914D0386E08083E0914A03F0914B038F
:100AA000808180618083E0914A03F0914B038081D3
:100AB00088608083E0914A03F0914B0380818068D5
:100AC0008083E0914A03F0914B0380818F7D808386
:100AD0001E0121E5220E311C88E393E00E946B0287
:100AE00018161906E4F488E393E00E9449028A305C
:100AF00009F06AC4E0912D03F0912E03E355FD4FF8
:100B000010828091AC02882309F495C081E00E9494
:100B10005B0110922E0310922D031092AC020091F3
:100B2000AA021091AB028091A8029091A902081725
:100B30001907A8F488E393E00E943A0218161906F0
:100B400074F4C80101969093AB028093AA02F80155
:100B5000E85BFD4F608188E393E00E94A3028FB7BA
:100B6000F894C0902F03D0903003E0903103F090C0
:100B7000320316B5A89B07C01F3F29F0FFEFCF1A1D
:100B8000DF0AEF0AFF0A8FBF8FB7F8948090340313
:100B900090903503A0903603B09037038FBF8091BB
:100BA00006048823C1F08091F1039091F203A09193
:100BB000F303B091F40324013501481A590A6A0A73
:100BC0007B0AD301C2018F3E9240A105B10518F006
:100BD00081E00E945B0180910804882349F18091A3
:100BE000F5039091F603A091F703B091F803240167
:100BF0003501481A590A6A0A7B0AC301B20180907A
:100C0000F9039090FA03A090FB03B090FC03240139
:100C1000350128EE420E23E0521E611C711C46165F
:100C200057066806790608F0EBC381E00E945B0175
:100C300010E000E000C52091AA023091AB02809143
:100C4000A8029091A9022817390708F45FCF6AE239
:100C500070E08DEA92E00E9432108C01009709F456
:100C600055CFFC013196DF010D900020E9F7CD0151
:100C700005978E179F0709F049CFDF019D919923B2
:100C800041F080ED890F8A30C8F391549630B0F36B
:100C90003DCF40E150E070E060E0CF010E94960C53
:100CA0006B017C01F80110828DEA92E00E94410301
:100CB000B0E0A0E0C816D906EA06FB0609F026CF88
:100CC0008FB7F8944090340350903503609036030A
:100CD00070903703E9964CAE5DAE6EAE7FAEE9978D
:100CE0008FBF80E1D1011D928A95E9F79101EDEA6C
:100CF000F2E0F12CE12C8081882309F4E2C4B8E011
:100D0000EB16F104E1F0CF01FC01DC014D91403222
:100D1000A1F0442309F4D5C4EFEFEE1AFE0AD9017D
:100D20008D939D939D01FC0140810196442319F30D
:100D30004032C9F71082FC01DECFCD01E5CF8191B1
:100D40008032E9F3E5961CAE1DAE1EAE1FAEE597F0
:100D5000E1961CAE1DAE1EAE1FAEE197AD961CAE69
:100D60001DAE1EAE1FAEAD97A9961CAE1DAE1EAE3B
:100D70001FAEA997A5961CAE1DAE1EAE1FAEA597C1
:100D80008111A1C4B2E0EB16F10408F49CC4BE01C9
:100D90006F587F4FF101808191810E945A03182F73
:100DA000882309F490C4E5968CAD9DADAEADBFAD82
:100DB000E597181619061A061B060CF084C4F2E013
:100DC000EF16F10409F0D9C069E172E0D101129681
:100DD0008D919C910E943D10892B09F0CEC080E03E
:100DE0000E945B0110920704109202041092030407
:100DF00010920404109205041092D5031092D603A9
:100E00001092D7031092D803812FE5964CAD5DADBB
:100E10006EAD7FADE5978090D5039090D603A090FE
:100E2000D703B090D80384169506A606B7060CF033
:100E30004AC44093D5035093D6036093D70370936D
:100E4000D80381111AC0B2E0EB16F10409F097C083
:100E5000F101E280F3806BE172E0C7010E943D1076
:100E6000892B59F06DE172E0C7010E943D10892B7A
:100E700009F040C180E00E945B01E9964CAC5DAC9A
:100E80006EAC7FACE9974092F1035092F20360920E
:100E9000F3037092F403F09109042091080481E0B7
:100EA0002827E091070470910604309102044091D4
:100EB0000304509104046091050482E192E0111151
:100EC00002C085E192E01F92FF931F922F931F9221
:100ED000EF931F927F936F935F934F933F939F93F3
:100EE0008F93E5968FADE5978F93E4968FADE4975A
:100EF0008F93E3968FADE3978F93E2968FADE29752
:100F00008F9385E292E09F938F931F9280E58F935A
:100F10008E010F5F1F4F1F930F930E944610C80151
:100F20000E9441039F938F931F930F938EE392E050
:100F30009F938F931F9280E68F9308E412E01F9394
:100F40000F930E94461001970FB6F894DEBF0FBEB4
:100F5000CDBF8F35910508F0D9CDD8010D90002077
:100F6000E9F78D01095412401093A9020093A802D9
:100F70001092AB021092AA02CCCD80E046CFF6E0F0
:100F8000EF16F10409F0D0C06FE172E0D1011296C2
:100F90008D919C910E943D10892B09F094C3809102
:100FA0000604811190C38091080481118CC3809143
:100FB0000904882309F487C3BE0163597F4FF101F7
:100FC000848195810E945A03882309F47CC3BE0161
:100FD00067597F4FD10116968D919C910E945A03BB
:100FE000882309F470C3BE016B597F4FF1018085DE
:100FF00091850E945A03882309F465C3BE016F5985
:101000007F4FD1011A968D919C910E945A0388239B
:1010100009F459C3E1968CAD9DADAEADBFADE1977E
:10102000803CEDEB9E07E0EFAE07EFEFBE070CF460
:101030004AC3AD968CAC9DACAEACBFACAD97B7FF20
:1010400042C3B501A40141505109610971094034FD
:1010500052446F40710508F036C3A996CCACDDACA4
:10106000EEACFFACA997B701A60141505109610947
:101070007109483E53406105710508F024C3A596E7
:101080004CAD5DAD6EAD7FADA5972A013B0131E062
:10109000431A510861087108E0E14E16E7E25E0666
:1010A0006104710408F00FC38093D9039093DA03AD
:1010B000A093DB03B093DC038092DD039092DE0308
:1010C000A092DF03B092E003C092E103D092E2036A
:1010D000E092E303F092E4034093E5035093E603C8
:1010E0006093E7037093E80381E08093010410921A
:1010F0000704C3CE61E272E0C7010E943D10892B54
:1011000009F0E1C280910104882309F4DCC28091D6
:1011100007048111D8C280910904882309F4D3C23D
:1011200081E080930604A9CEF4E0EF16F10409F003
:10113000CAC263E272E0D10112968D919C910E9425
:101140003D10892B09F0BFC280910604882309F461
:10115000BAC2809107048111B6C28091080481113E
:10116000B2C2BE0163597F4FF101848195810E9413
:101170005A03882309F4A7C2BE0167597F4FD101E2
:1011800016968D919C910E945A03882309F49BC264
:10119000E1968CAC9DACAEACBFACE1978091D9032D
:1011A0009091DA03A091DB03B091DC0388169906D5
:1011B000AA06BB060CF487C28091DD039091DE0382
:1011C000A091DF03B091E00388159905AA05BB053E
:1011D0000CF479C2AD964CAC5DAC6EAC7FACAD9707
:1011E000ED964CAE5DAE6EAE7FAEED97D301C20113
:1011F0008A5F9109A109B109873C9642A940B105CE
:1012000008F061C24090020450900304609004040E
:1012100070900504C501B4010E940D0F6B017C01A3
:10122000C301B2010E940D0F9B01AC01C701B601C1
:101230000E94F10D6B017C01E894F7F8ED966CAD1E
:101240007DAD8EAD9FADED970E940D0F20E030E09B
:101250004AE754E40E94630EC358DF4F68837983E2
:101260008A839B83CD57D040A7019601C701B60161
:101270000E94F20DC358DF4F288139814A815B817A
:10128000CD57D0400E94630ECF57DF4F68837983DC
:101290008A839B83C158D0406091E1037091E2033F
:1012A0008091E3039091E4030E940D0F27E137EB57
:1012B00041ED58E30E94F20D9B01AC01CF57DF4F87
:1012C000688179818A819B81C158D0400E945E0EDD
:1012D00018160CF4F8C120E030E040E850E4C701F3
:1012E000B6010E94BD0F6B017C01C358DF4F2881FE
:1012F00039814A815B81CD57D040CA01B9010E9432
:10130000BD0F9B01AC01C701B6010E94630E6B01CA
:101310007C016091E5037091E6038091E703909171
:10132000E8030E940D0F27E137EB41ED58E30E94DF
:10133000F20D9B01AC01C701B6010E945E0E1816AA
:101340000CF4C1C14092E9035092EA036092EB03AE
:101350007092EC038092ED039092EE03A092EF0363
:10136000B092F003ED968CAD9DADAEADBFADED97F7
:101370008093F9039093FA03A093FB03B093FC03CB
:10138000E9962CAD3DAD4EAD5FADE9972093F503E9
:101390003093F6034093F7035093F803A8EEB3E0BD
:1013A0000E94D70D6093FD037093FE038093FF03AB
:1013B0009093000481E084149504A604B70409F412
:1013C00080E08093080459CD8D3009F4A8CB20919A
:1013D0002D0330912E03A9014F5F5F4F4038510517
:1013E00048F450932E0340932D0323553D4FF901AC
:1013F000808395CB81E08093AC020E945B018FCB10
:10140000681579058A059B0508F03AC10E940B0F03
:101410002B013C01C501B4010E940B0F9B01AC01E3
:10142000C301B2010E94630E562E672E782E092F3B
:10143000862E972EA82EB92E20E030E040E05FE304
:101440000E945E0E87FF22C1252D362D472D502F7D
:10145000652D762D872D902F0E94F20D252D362D8E
:10146000472D502F0E94BD0F2B013C018091ED03B1
:101470009091EE03A091EF03B091F003ED968CAF45
:101480009DAFAEAFBFAFED972091E9033091EA0376
:101490004091EB035091EC03E9962CAF3DAF4EAF7A
:1014A0005FAFE9974C015D01821A930AA40AB50A5D
:1014B000C501B4010E940D0F9F77A30192010E9404
:1014C000BD0F0E94D50E9B01AC016FEF7FEFCB01EA
:1014D000B7FC04C061E070E080E090E0409002045E
:1014E000509003046090040470900504C358DF4FCB
:1014F000488259826A827B82CD57D0400E94A50DD6
:10150000E9964CAC5DAC6EAC7FACE997640D751D93
:10151000861D971DC358DF4F488059806A807B80A5
:10152000CD57D040641575058605970509F480CB25
:10153000FE2CED2CDC2CCC24C10ED11CE11CF11CAA
:1015400092E0CC0CDD1CEE1CFF1C9A95D1F720918B
:10155000E1033091E2034091E3035091E403809171
:10156000FD039091FE03A091FF03B09100042601BA
:101570003701481A590A6A0A7B0ACA01B901615C33
:101580007D4B804F9F4F0E94B50D42165306640657
:10159000750608F44DCB0FEF1FEFB7FC02C001E05A
:1015A00010E0C801012E000CAA0BBB0BC358DF4F83
:1015B000488059806A807B80CD57D040480E591EA4
:1015C0006A1E7B1E8091D9039091DA03A091DB0300
:1015D000B091DC03481659066A067B060CF425CB4D
:1015E0008091DD039091DE03A091DF03B091E003D1
:1015F00084159505A605B7050CF417CB4092020497
:10160000509203046092040470920504C092FD039A
:10161000D092FE03E092FF03F0920004ED962CAD11
:101620003DAD4EAD5FADED9724153505460557052B
:1016300011F410920804809109048823F1F090912C
:10164000060481E089270E94850101151105A9F092
:1016500081E00130110509F080E00E94850103E27C
:1016600010E0C8010197F1F781E00E948501C801EF
:101670000197F1F780E00E9485010E9410032CCAB7
:10168000812C912C20E8A22E3FE3B32E9401A501DA
:1016900060E070E080E89FE30E94F10D4B015C0187
:1016A000AC019B010E94F20DA50194010E94BD0FA7
:1016B0009B01AC0160E070E080E89FE30E94F10DC7
:1016C000D3CE80813FCB81E00E945B0110E0E3CB71
:1016D0003F924F925F926F927F928F929F92AF92C2
:1016E000BF92CF92DF92EF92FF920F931F93CF930F
:1016F000DF935C016B017A016115710519F0FB0143
:1017000091838083E114F10451F0C701029783971C
:1017100030F040E030E020E090E06BC05E01E50199
:101720002196F5011081812F90E00E94990D892B5F
:10173000A9F71D3201F52196F501118101E0E114AF
:10174000F10409F4E6C0F0E1EF16F10409F088C0F5
:10175000103359F488818F7D883509F07CC0198158
:1017600022960260F0E1EF2EF12C812C912CA12C1D
:1017700088E0B82E92C01B3221F4E5012296F501D3
:10178000118100E0DCCFEAE0EE16F10409F4C7C0F5
:10179000F0E1EF16F10409F073C0E7CF78E0E72E2F
:1017A000F12C812C912CA12C60E1B62E76C021E089
:1017B000ADC0302F3170C114D10431F0222371F14A
:1017C0002197F601D183C08327FF2EC060E070E02F
:1017D00080E090E8311104C06FEF7FEF8FEF9FE75B
:1017E00022E230E030930B0420930A04462F372F77
:1017F000282F642F732F822FDF91CF911F910F918C
:10180000FF90EF90DF90CF90BF90AF909F908F9020
:101810007F906F905F904F903F90089501FF04C0BC
:101820002297F601D183C083332341F090958095B0
:10183000709561957F4F8F4F9F4FD8CF97FFD6CF31
:1018400082E290E090930B0480930A046FEF7FEFA5
:101850008FEF9FE7CBCF10E3E114F10409F49ECFA3
:1018600028E0E216F10409F49CCF0CF08CCF812C17
:10187000912CA12CE0E4BE2E82E0E816F10469F080
:1018800060E070E080E090E897010F2C000C440BC2
:10189000550B0E94B50D49015A0120E060E070E04F
:1018A000CB0127010F2C000C66087708FE0150EDD4
:1018B000352E310E39E0331570F43FEB310F49EC22
:1018C000342E3A3138F03FE9310F3A3108F071CF18
:1018D00039EA332E310E3E141F040CF06ACF27FD77
:1018E00015C086169706A806B90678F0A3019201DE
:1018F0000E94A50D630D711D811D911D6130710543
:10190000810520E8920708F452CF2FEF219610812D
:10191000CDCF103309F41ECF2AE0E22EF12C9CEC3F
:10192000892E982CA82C9CE0B92EB7CF3F924F92CD
:101930005F926F927F928F929F92AF92BF92CF925F
:10194000DF92EF92FF920F931F93CF93DF935C018F
:101950006B017A016115710519F0FB019183808398
:10196000E114F10449F0C7010297839728F060E081
:1019700070E0CB019BC05E01E5012196F50110816D
:10198000812F90E00E94990D892BA9F71D3209F053
:101990005CC02196F501118101E0E114F10409F424
:1019A000BBC0F0E1EF16F10409F09BC0103341F425
:1019B00088818F7D883509F08FC019812296026059
:1019C000E0E1EE2EF12C88248A94982CA82CFFE0DC
:1019D000BF2E20E060E070E0CB0127010F2C000C4F
:1019E00066087708FE0150ED352E310E39E03315CB
:1019F00068F43FEB310F49EC342E3A3130F03FE9D7
:101A0000310F3A31B0F539EA332E310E3E141F044E
:101A100084F52F3FB9F086169706A806B90638F167
:101A2000A30192010E94A50D232D30E050E040E07B
:101A3000620F731F841F951F621773078407950732
:101A4000B0F021E021961081CDCF1B3221F4E501C9
:101A50002296F501118100E0A0CF78E0E72EF12C6D
:101A600088248A94982CA82C6FE1B62EB2CF2FEF41
:101A7000E9CFC114D10431F0222351F12197F601AD
:101A8000D183C08300FF07C09095809570956195C4
:101A90007F4F8F4F9F4F2F3F49F482E290E090930A
:101AA0000B0480930A046FEF7FEFCB01DF91CF919E
:101AB0001F910F91FF90EF90DF90CF90BF90AF906C
:101AC0009F908F907F906F905F904F903F90089580
:101AD00001FFD8CF2297D3CF10E3E114F10409F42A
:101AE000BCCF3AE0E316F104E9F080E1E816F10436
:101AF00009F466CFE8E0EE16F10409F4B1CF6FEF18
:101B00007FEFCB0197010F2C000C440B550B0E946B
:101B1000B50D49015A015DCF103309F449CF9AE060
:101B2000E92EF12C89E9882E982CA82C89E1B82E71
:101B300050CF91110C94A20D803219F0895085502C
:101B4000C8F70895992788270895DB018F939F93FD
:101B50000E94D70DBF91AF91A29F800D911DA39FB1
:101B6000900DB29F900D11240895A1E21A2EAA1B88
:101B7000BB1BFD010DC0AA1FBB1FEE1FFF1FA2173D
:101B8000B307E407F50720F0A21BB30BE40BF50B3A
:101B9000661F771F881F991F1A9469F760957095C3
:101BA000809590959B01AC01BD01CF0108950E94E5
:101BB000E20DA59F900DB49F900DA49F800D911DE7
:101BC00011240895A29FB001B39FC001A39F700D7F
:101BD000811D1124911DB29F700D811D1124911D35
:101BE00008955058BB27AA270E94090E0C94830F12
:101BF0000E94750F38F00E947C0F20F039F49F3F4F
:101C000019F426F40C94720F0EF4E095E7FB0C9493
:101C10006C0FE92F0E94940F58F3BA1762077307ED
:101C20008407950720F079F4A6F50C94B60F0EF40E
:101C3000E0950B2EBA2FA02D0B01B90190010C01DC
:101C4000CA01A0011124FF27591B99F0593F50F4F4
:101C5000503E68F11A16F040A22F232F342F44274C
:101C6000585FF3CF469537952795A795F040539544
:101C7000C9F77EF41F16BA0B620B730B840BBAF014
:101C80009150A1F0FF0FBB1F661F771F881FC2F77F
:101C90000EC0BA0F621F731F841F48F48795779593
:101CA0006795B795F7959E3F08F0B0CF9395880F4D
:101CB00008F09927EE0F9795879508950E94480F91
:101CC00008F481E008950E94770E0C94830F0E941F
:101CD0007C0F58F00E94750F40F029F45F3F29F007
:101CE0000C946C0F51110C94B70F0C94720F0E944E
:101CF000940F68F39923B1F3552391F3951B550B7A
:101D0000BB27AA2762177307840738F09F5F5F4FCE
:101D1000220F331F441FAA1FA9F335D00E2E3AF00D
:101D2000E0E832D091505040E695001CCAF72BD025
:101D3000FE2F29D0660F771F881FBB1F2617370776
:101D40004807AB07B0E809F0BB0B802DBF01FF27A8
:101D500093585F4F3AF09E3F510578F00C946C0F0A
:101D60000C94B70F5F3FE4F3983ED4F386957795D4
:101D70006795B795F7959F5FC9F7880F911D969561
:101D8000879597F90895E1E0660F771F881FBB1FBD
:101D9000621773078407BA0720F0621B730B840B6A
:101DA000BA0BEE1F88F7E09508950E94DC0E689448
:101DB000B1110C94B70F08950E949C0F88F09F57A3
:101DC00098F0B92F9927B751B0F0E1F0660F771F5F
:101DD000881F991F1AF0BA95C9F714C0B13091F055
:101DE0000E94B60FB1E008950C94B60F672F782FBC
:101DF0008827B85F39F0B93FCCF38695779567951A
:101E0000B395D9F73EF490958095709561957F4F85
:101E10008F4F9F4F0895E89409C097FB3EF490952B
:101E20008095709561957F4F8F4F9F4F9923A9F0B3
:101E3000F92F96E9BB279395F69587957795679542
:101E4000B795F111F8CFFAF4BB0F11F460FF1BC086
:101E50006F5F7F4F8F4F9F4F16C0882311F096E919
:101E600011C0772321F09EE8872F762F05C06623C7
:101E700071F096E8862F70E060E02AF09A95660F80
:101E8000771F881FDAF7880F9695879597F9089539
:101E9000990F0008550FAA0BE0E8FEEF161617067B
:101EA000E807F907C0F012161306E407F50798F0E3
:101EB000621B730B840B950B39F40A2661F0232BFC
:101EC000242B252B21F408950A2609F4A140A69578
:101ED0008FEF811D811D089597F99F6780E870E05D
:101EE00060E008959FEF80EC089500240A94161690
:101EF000170618060906089500240A9412161306F8
:101F0000140605060895092E0394000C11F4882385
:101F100052F0BB0F40F4BF2B11F460FF04C06F5FA1
:101F20007F4F8F4F9F4F089557FD9058440F551F77
:101F300059F05F3F71F04795880F97FB991F61F04B
:101F40009F3F79F087950895121613061406551FC2
:101F5000F2CF4695F1DF08C0161617061806991F2E
:101F6000F1CF86957105610508940895E894BB2723
:101F700066277727CB0197F908950E94D00F0C941C
:101F8000830F0E94750F38F00E947C0F20F095237C
:101F900011F00C946C0F0C94720F11240C94B70F69
:101FA0000E94940F70F3959FC1F3950F50E0551F59
:101FB000629FF001729FBB27F00DB11D639FAA279E
:101FC000F00DB11DAA1F649F6627B00DA11D661FED
:101FD000829F2227B00DA11D621F739FB00DA11D0E
:101FE000621F839FA00D611D221F749F3327A00DC8
:101FF000611D231F849F600D211D822F762F6A2F64
:1020000011249F5750409AF0F1F088234AF0EE0FC8
:10201000FF1FBB1F661F771F881F91505040A9F7F5
:102020009E3F510580F00C946C0F0C94B70F5F3FEE
:10203000E4F3983ED4F3869577956795B795F79531
:10204000E7959F5FC1F7FE2B880F911D96958795A9
:1020500097F90895EE0FFF1F881F8BBF0790F69129
:10206000E02D1994FC018191861721F08823D9F77E
:10207000992708953197CF010895FB01DC018D91D7
:10208000019080190110D9F3990B08950F931F93B4
:10209000CF93DF93CDB7DEB72E970FB6F894DEBFA0
:1020A0000FBECDBF0E891F89888D998D26E02C83A8
:1020B0001A83098397FF02C080E090E801979E830E
:1020C0008D83AE01445E5F4F6A8D7B8DCE0101969C
:1020D0000E9483104D815E8157FD0AC02F81388593
:1020E000421753070CF49A01020F131FF8011082D4
:1020F0002E960FB6F894DEBF0FBECDBFDF91CF9105
:102100001F910F9108952F923F924F925F926F927D
:102110007F928F929F92AF92BF92CF92DF92EF9277
:10212000FF920F931F93CF93DF9300D000D000D086
:102130001F921F92CDB7DEB77C013B018A01FC01E3
:1021400017821682838181FFDDC1CE0101965C0179
:10215000F7019381F30193FD859193FF81913F01F5
:10216000882309F453C1853239F493FD859193FF97
:1021700081913F01853229F4B70190E00E949B12C2
:10218000E7CF912C212C312CFFE1F31538F08B3265
:1021900011F190F4803209F1833229F137FC3CC00F
:1021A00020ED280F2A3050F536FE20C08AE0989E98
:1021B000200D1124922E06C08D3291F0803371F7DC
:1021C000689430F8F30193FD859193FF81913F016D
:1021D0008111DACF21C0689431F8689432F8F2CFD7
:1021E000689433F8EFCF689434F8ECCFEAE02E9E91
:1021F000200D1124222E689435F8E4CF8E3229F474
:1022000036FC04C1689436F8DDCF8C3619F4689436
:1022100037F8D8CF8836B1F2982F9F7D95549330F8
:10222000E0F08336A1F18337C1F1833509F063C053
:102230002801F2E04F0E511CF801C080D180692DB9
:1022400070E036FC02C06FEF7FEFC6010E9485127E
:102250004C01689437F882010AC00C5F1F4FFFE3FE
:10226000F98388248394912C6501E89437F833FE30
:102270002DC0522C8114910471F5552009F468CFBA
:10228000B70180E290E00E949B125A94F6CFF801C9
:10229000808189830E5F1F4FE4CF2801F2E04F0E4B
:1022A000511CF801C080D180692D70E036FC02C05D
:1022B0006FEF7FEFC6010E9490124C018201D5CFD3
:1022C000B70180E290E00E949B122A94281419041E
:1022D00009F0B0F7CECFF60137FC859137FE81913A
:1022E0006F01B70190E00E949B1251105A94F1E0E7
:1022F0008F1A9108BFCF843619F0893609F077C05C
:10230000F80137FE6BC060817181828193810C5F1F
:102310001F4FF32DFF763F2E97FF09C090958095B4
:10232000709561957F4F8F4F9F4F689437F82AE0E3
:1023300030E0A5010E94CB12C82ECA188C2C432C69
:1023400036FE0CC0E89440F8C91440F434FE05C0D1
:1023500032FC03C0F32DFE7E4F2E892C44FEAAC012
:10236000FE01EC0DF11D8081803309F09CC0242D0D
:10237000297E422E842D8870582E43FCAAC040FE30
:10238000A4C09C2C821418F42C0C922C981844FE97
:10239000A6C0B70180E390E00E949B1242FE09C0F4
:1023A00088E790E041FE02C088E590E0B7010E9416
:1023B0009B12C91408F49FC0CA94D12C9FEFC91A6C
:1023C000D90ACA0CDB1CF60182916F01B70190E0BB
:1023D0000E949B12AC14BD04B1F74FCF6081718194
:1023E000072E000C880B990B0E5F1F4F92CFD32C3A
:1023F000E894D4F82AE030E08537E1F1232D297FF5
:10240000D22E8F36A9F1F0F4883551F1F70186818B
:1024100097812B960FB6F894DEBF0FBECDBFDF912C
:10242000CF911F910F91FF90EF90DF90CF90BF90D1
:10243000AF909F908F907F906F905F904F903F9064
:102440002F900895803749F0883701F7D4FE02C0F5
:102450006894D2F820E130E00DC06894D4F8F6CF4B
:1024600034FE03C0822F8660D82E20E132E002C005
:1024700028E030E0F801D7FE0FC0608171818281D1
:1024800093810C5F1F4FA5010E94CB12C82ECA1862
:102490003D2CE89437F852CF6081718190E080E064
:1024A0000E5F1F4FF0CF42FC02C0839463CF839432
:1024B000839460CF842D867809F45CCFF6CFB70182
:1024C00080E290E00E949B1283948214C0F3512C0E
:1024D0005ECF522C5818821408F459CFF8CF842DAF
:1024E000867809F466CF8BE241FE80E247FC8DE2FC
:1024F000B70190E05CCFB70180E390E00E949B12AF
:102500009A9457CF8FEF9FEF84CFFC0105906150D5
:1025100070400110D8F7809590958E0F9F1F0895F9
:10252000FC016150704001900110D8F780959095A2
:102530008E0F9F1F08950F931F93CF93DF93182F34
:10254000092FEB018B8181FD09C01FEF0FEF812F58
:10255000902FDF91CF911F910F91089582FF14C0AA
:102560002E813F818C819D81281739073CF4E881B9
:10257000F981CF0101969983888310838E819F8191
:1025800001969F838E83E3CFE885F985812F199586
:10259000892BA1F3DACFFA01AA27283051F1203193
:1025A00081F1E8946F936E7F6E5F7F4F8F4F9F4FE7
:1025B000AF4FB1E03ED0B4E03CD0670F781F891F29
:1025C0009A1FA11D680F791F8A1F911DA11D6A0FF7
:1025D000711D811D911DA11D20D009F468943F91AA
:1025E0002AE0269F11243019305D3193DEF6CF01A9
:1025F0000895462F4770405D4193B3E00FD0C9F76F
:10260000F6CF462F4F70405D4A3318F0495D31FDDB
:102610004052419302D0A9F7EACFB4E0A69597952E
:10262000879577956795BA95C9F700976105710504
:1026300008959B01AC010A2E06945795479537954E
:102640002795BA95C9F7620F731F841F951FA01DA8
:062650000895F894FFCF8D
:1026560000000000A3020D023A02F0026B024902DA
:102666005D024F4B0045525200480053005800434C
:102676000045004D00256C6420257320256C6420E0
:1026860025642025642025642031202564002573D7
:082696002A253034580A000027
:00000001FF
